:0200000280007C
:1000000000200820A90108001703080019030800B0
:100010001B0308001D0308001F0308000000000068
:1000200000000000000000000000000021030800A4
:100030002303080000000000250308002703080030
:10004000290308002B0308002D0308002F030800D4
:1000500031030800330308003503080037030800A4
:10006000390308003B0308003D0308003F03080074
:100070004103080043030800450308004703080044
:10008000490308004B0308004D0308004F03080014
:1000900051030800530308005503080057030800E4
:1000A000590308005B0308005D0308005F030800B4
:1000B00061030800630308001503080038B504460F
:1000C00000253CB1012C05D0601EFFF7F7FF023C74
:1000D0000544F6E7601938BD2DE9F04188B01822D3
:1000E0000021154B02A898474FF4C052134B012131
:1000F000CDE900230A2368468DF80830104B984755
:100100004FF4E13101200F4A0F4B98470F48104B35
:100110009847104EDFF848800F4F00240F4D2046BF
:10012000B0472146024645F8040B01344046B84723
:10013000142CF4D1F1E700BFAD070800000C0E400D
:10014000B9030800006CDC026503080040080800E1
:1001500099070800BD000800790708003004002056
:100160005208080070B500260B4D0C4C641BA410FF
:10017000A64207D100260A4D0A4C641BA410A642D1
:1001800005D170BD55F8043B98470136F0E755F8A6
:10019000043B98470136F2E78C0808008C080800F9
:1001A0008C0808008C080800104B10B59847104ABE
:1001B000104B9A4202D010498B420FD300210F4BB3
:1001C0000F4A93420FD34FF0E0230E4AC3F8082D95
:1001D0000D4B9847BDE810400C4B184752F8040BE4
:1001E00043F8040BE8E743F8041BEAE73102080090
:1001F0008C0808000000002030040020300400209B
:10020000800400200000080065010800D9000800F3
:10021000064B1A6C42F4C0221A645A6C42F4C02293
:100220005A64DA6C42F40032DA64704700020E401D
:100230004FF400732D4A1360C2F800324FF40042AD
:100240002B4B5A602B4A536913F0800306D12A497D
:1002500011605169080601D4013BFAD1274B1A6A93
:1002600012F0807206D126491962996EC90701D42D
:10027000013AFAD1234A1A620022996EC80301D4C6
:10028000013AFAD11A6B22F0070242F001021A6316
:100290000022996E090701D4013AFAD11A4A9A62EA
:1002A0000022996E880701D4013AFAD117490A68E9
:1002B00042F444120A600022996E490601D4013AC0
:1002C000FAD111221A630022996E080701D4013A6B
:1002D000FAD112221A630022996E090701D4013A59
:1002E000FAD14FF480721A61094B184700080E408A
:1002F00050120E4010120E40080000A500040E40DF
:10030000093F3700093F3701013F07201C040E4019
:1003100011020800FEE7FEE7FEE7FEE7FEE7FEE764
:10032000FEE7FEE7FEE7FEE7FEE7FEE7FEE7FEE7A5
:10033000FEE7FEE7FEE7FEE7FEE7FEE7FEE7FEE795
:10034000FEE7FEE7FEE7FEE7FEE7FEE7FEE7FEE785
:10035000FEE7FEE7FEE7FEE7FEE7FEE7FEE7FEE775
:10036000FEE7FEE710B54FF480740C4B09011C61E9
:100370000C24B2FBF1F2C3F800424FF0FF34C3F893
:100380000C42C3F8202240F20222C3F80402C3F850
:1003900020235022C3F8002210BD00BF00040E40ED
:1003A000044B1A4659698905FCD5D86153699B05E8
:1003B000FCD5704700060E40F0B50125314E09B955
:1003C0000120F0BD447A042C5AD8DFE804F003156C
:1003D00020424200847AD0E90023E4075A644CBFEB
:1003E0005A661A661C6F1F6F3C4024EA02041C67A1
:1003F0005A6020300139E2E7847AD0E90023E70728
:100400005A644CBF5A661A661C6F1443EFE7037AAE
:1004100005FA03F33361847AD0E9002304F002077C
:10042000E4075A644CBF5A661A6687B11A625A6169
:100430001A60002FDDD08269848BC3F88420D243F8
:10044000C4F30D04C3F88020C3F88C40D1E75A628E
:10045000EDE7877AD0E9002307F0040CFF075A6420
:100460004CBF5A661A66BCF1000F07D01A65042CFF
:100470000CBF1A635A631A611A60BAE75A65F6E745
:1004800000209EE700040E40034600200A5C02B9EB
:1004900070471A540130F9E7092BF8B514460546A0
:1004A0000F461E4602F1FF321CD90A23B6FBF3F3B6
:1004B000FFF7F2FF05440A22B6FBF2F302FB1366D4
:1004C00030362E700130F8BD01F8017B013B002B66
:1004D000FADC002CD8BF0022012CB8BF012415443F
:1004E000601EE8E713460146F1E7F8B583EAE376D4
:1004F000A6EBE376092E174604468C461D4602F10C
:10050000FF3211D90A23B6FBF3F3002DB8BF5B42CB
:10051000FFF7EBFF22180A21B6FBF1F301FB13638F
:10052000303313700130F8BD002BB8BFBA1E03463C
:100530001044C11A00290DDC002DB8BF2D2122EA7C
:10054000E27004EB000200F10103BEBF215401324E
:100550001846E0E703F801CBEBE7F7B5089C154632
:100560005FEA141E07468C461E4602F1FF321CD07D
:10057000CDF800E0FFF7F1FF3A1804F00F03092B64
:100580001C4615D830340130147003B0F0BD01F8AA
:1005900001CB013B002BFADC002DD8BF0022012D3E
:1005A000B8BF01253A44681EE7E713460146F1E764
:1005B0000EB13734E7E75734E5E700002DE9F74F90
:1005C0000E46044608B1002101700025DFF81091A5
:1005D000DFF810A1DFF810811178002979D0AE4240
:1005E00004D80023013D04F8013C37E0252904D05C
:1005F000013204F8011B0135EEE75178252903D1BA
:1006000004F8011B0232F6E730292BD102F1020C6B
:10061000002206E002EB82000EEB4000303800F0D2
:10062000FF029CF800E06746AEF1300009280CF1AB
:10063000010CEFD95019B04284BF721BD2B2BEF187
:10064000690F23D012D8BEF1630F3DD0BEF1640F05
:100650001CD0BEF1580F31D04FF0FF35284603B003
:10066000BDE8F08F202102F1010CD1E7BEF1750F3A
:1006700016D0BEF1780F19D0BEF1730FECD19B46A6
:1006800020465BF8041B154B984704E09B46204628
:100690005BF8043BC8475B467A1C044405449BE76F
:1006A0009B4620465BF8043BD047F4E79B465BF84B
:1006B000043B009300232046C047ECE79B465BF8D1
:1006C000043B00930123F6E753F8042B012022702A
:1006D000E2E7AE4285D92170C0E700BF8904080077
:1006E000EB040800990408005B05080010B4034CF3
:1006F0001346A4460A4610BC64216047BD050800A5
:100700002DE9F041A2B06C4606460F46A046104BBC
:1007100003F1200C254618685968083303C5634562
:100720002C46F7D1186839460A4B286009A8984723
:100730006328094B05DD094A40461268D16898478D
:10074000FEE7314609A8984722B0BDE8F08100BF16
:1007500066080800ED0608001D08080000000020DB
:10076000034B0A461B6801469868024B184700BFB6
:1007700000000020010708000FB407B504A951F8D4
:10078000040B044B0191984703B05DF804EB04B0EF
:10079000704700BF61070800024B1B689968024B55
:1007A000184700BF000000201D080800830730B56F
:1007B00004D003461A44934217D130BD032AF8D916
:1007C00005460B0443EA01630B4343EA012345F862
:1007D000043B541B0444032CF9D8131F23F00303D8
:1007E0000433034402F00302E4E703F8011BE2E7E9
:1007F000084B10B51B6804469A688A4202D0DB6831
:100800008B4204D1044BE0B29847204610BD4FF014
:10081000FF34FAE700000020A1030800F8B5054600
:100820000E460024054F285D08B92046F8BD314624
:10083000B847431CFAD00134F5E700BFF1070800C0
:100840002D492D2068656C6C6F20776F726C640A7F
:100850000A002D492D207637206669622025642004
:100860003D2025640A00737464696F2E633A206921
:100870006E637265617365204D41585F53545249F0
:0C0880004E475F53495A450A0D00000026
:10088C000800002000000000000000000000000034
:10089C00010000000000000000000000000000004B
:1008AC00000000000000000000000000000000003C
:1008BC00000000000000000000000000000000002C
:1008CC00000000000000000000000000000000001C
:1008DC00000000000000000000000000000000000C
:04000003800001A9CF
:00000001FF
