:0200000280007C
:100000000020082061010800FF0208000103080029
:1000100003030800050308000703080000000000B0
:1000200000000000000000000000000009030800BC
:100030000B030800000000000D0308000F03080078
:100040001103080013030800150308001703080034
:10005000190308001B0308001D0308001F03080004
:1000600021030800230308002503080027030800D4
:10007000290308002B0308002D0308002F030800A4
:100080003103080033030800350308003703080074
:10009000390308003B0308003D0308003F03080044
:1000A0004103080043030800450308004703080014
:1000B000490308004B030800FD02080038B5044658
:1000C00000253CB1012C05D0601EFFF7F7FF023C74
:1000D0002D18F6E7281938BD10B588B00021202268
:1000E000144B68469847144B4FF4C0520A208DE8D1
:1000F0000C008DF808000121104A68469047104C0A
:1001000001204FF4E1310F4AA0470F480F4B9847A9
:10011000002420460E4A90470E49024641F824002A
:100120000D4B21460D4801349847132CC8BF0024BD
:10013000EFE700BFC9070800000C0E404D030800A0
:1001400029040800006CDC0264080800B1070800FC
:10015000BD000800F400002095070800760808009C
:1001600008B50F4B98470F4A0F4B9A4205D10F4BDA
:100170000AE052F8041B43F8041B0D488342F8D3ED
:10018000F5E7002243F8042B0A498B42F9D30A48C9
:100190004FF0E022C2F8080D084B984708BD00BF99
:1001A000FD010800B008080000000020F400002055
:1001B000F40000204401002000000800D9000800DD
:1001C0000D4B01281A6C0AD142F4C0221A64596CF2
:1001D00041F4C0205864DA6C42F4003209E022F4A1
:1001E000403018645A6C22F440315964D86C20F4C1
:1001F0004032DA64704700BF00020E40344A08B54E
:1002000034494FF40073344813604FF400420B60DC
:100210004260324A536913F0800307D130481060BE
:100220002E4A5169090601D4013BF9D12D4A136ABE
:1002300013F0807307D12C4810622A4A916ECA07C6
:1002400001D4013BF9D1274B284818620023254AE5
:10025000916EC80301D4013BF9D1136B23F0070C55
:100260004CF00100106300231E4A916E090701D46F
:10027000013BF9D11E48002390621A498A6E90070B
:1002800001D4013BF9D11B4B1A6842F444101860A9
:100290000023144A916E490601D4013BF9D1112083
:1002A000106300230F4A916E080701D4013BF9D176
:1002B0001223136300230B4A906E010701D4013B04
:1002C000F9D14FF48071116101200B4A904708BDAC
:1002D00000080E40000A0E4050120E4010120E4050
:1002E000080000A500040E40093F3700093F370110
:1002F000013F07201C040E40C1010800FEE7FEE795
:10030000FEE7FEE7FEE7FEE7FEE7FEE7FEE7FEE7C5
:10031000FEE7FEE7FEE7FEE7FEE7FEE7FEE7FEE7B5
:10032000FEE7FEE7FEE7FEE7FEE7FEE7FEE7FEE7A5
:10033000FEE7FEE7FEE7FEE7FEE7FEE7FEE7FEE795
:10034000FEE7FEE7FEE7FEE7FEE7FEE770B563E0E7
:10035000447A042C64D8DFE804F0031120484800F4
:10036000857A90E80C00ED075A644CBF5A661A660D
:100370001C6F1D6F2C4024EA02040BE090F80AC0A9
:1003800090E80C005FEACC745A644CBF5A661A6657
:100390001C6F14431C675A603CE0047A012515FA6F
:1003A00004F2204B1A61847A90E80C0014F0010FDB
:1003B00004F002055A6414BF5A661A660DB11A6237
:1003C00000E05A625A611A6090F80AC05FEA8C72C3
:1003D00020D5828B84699204C3F88440920CE44354
:1003E000C3F88040C3F88C2014E0857A90E80C00B4
:1003F00015F0010F05F004065A6414BF5A661A6618
:100400000EB11A6500E05A65042C0CBF1A635A63DA
:100410001A611A6020300139002999D1012070BD7C
:10042000002070BD00040E400B4B10B54FF48074DB
:100430001C610A4B0C2409011C60B2FBF1F14FF066
:10044000FF34DC6050221962586040F20220C3F889
:1004500020011A6010BD00BF00040E4000060E40CF
:10046000044B5A699205FBD5D861024843699B0544
:10047000FBD5704700060E4001700120704703460F
:10048000002001E01A5401300A5C002AFAD17047BA
:100490002DE9F0479046013A092B06460F461C46C7
:1004A000124D0AD90A23B4FBF3F3FFF7F1FF82469A
:1004B00033180EE03946A84701E04FF0000906EB7B
:1004C0000900CA4609F10109C9EB0802002A0346DE
:1004D000F0DC0A22B4FBF2F002FB104404F130011C
:1004E0001846C9B2A8475044BDE8F087790408000F
:1004F0002DE9F84F83EAE374A4EBE374092C064674
:100500000F46984602F1FF391D4D10D9002B4FF0D0
:100510000A0304DAB4FBF3F34A465B4202E04A46BC
:10052000B4FBF3F3FFF7E4FF074636181BE0002B9C
:10053000B8BF09F1FF39CB46824606E0504639463E
:10054000A8470AF1010A0BF1FF3BBBF1000FF5DCF4
:1005500029EAE977B8F1000F3E4404DA30462D214C
:10056000A84701363F180A22B4FBF2F002FB104400
:1005700004F130013046C9B2A8473818BDE8F88FF9
:10058000790408002DE9F74F0C9D9146013A5FEA86
:10059000151A06460F469846134C09D0CDF800A010
:1005A000FFF7F0FF834630180CE018463946A047A5
:1005B00006EB0A03D3460AF1010ACAEB0902002A34
:1005C0001846F2DC05F00F01092901D8303105E0A9
:1005D000B8F1000F01D0373100E05731A0470BF1DF
:1005E0000100BDE8FE8F00BF790408002DE9F74344
:1005F0000E46044608B10021017000256AE0252955
:1006000003D004F8011B013205E05178252904D1FB
:1006100004F8011B023201355CE0302902D0571C7E
:10062000202100E0971C002206E04FF00A0C0CFB92
:100630000202303A02F0FF023878B846A0F1300CDE
:100640005FFA8CFC0137BCF1090FEED9AF18B74245
:1006500084BFC5EB0602D2B269280ED006D8632843
:100660002ED0642809D0582841D11BE075280AD023
:10067000782810D073283AD11DE003F104092046F0
:100680001B681D4F04E003F104091C4F1B68204642
:10069000B8474B461AE003F104091B682046009353
:1006A000002305E0186803F10409009001232046A7
:1006B000134FB847EDE71F1D19682046114B03E0A3
:1006C0001F1D1978104B204698473B4608F1010240
:1006D00024182D18117809B1B54290D3B5424FF0C6
:1006E000000132BF217004F8011C013D01E04FF010
:1006F000FF352846BDE8FE83F10408009104080098
:10070000850508007F0408007904080010B50C4630
:10071000134664212246014CA04710BDED05080098
:10072000F0B5114DA3B004460B4619AE05F1200EED
:1007300028686968374603C7083575453E46F7D1CE
:10074000286819463860094B684698476328084B63
:1007500005DD084919A80A68D1689847FEE7684688
:100760002146984723B0F0BD8A0808000D0708000D
:100770003D08080000000020844604480A4601683D
:1007800008B58868024B6146984708BD0000002004
:10079000210708000FB407B504A951F8040B034B57
:1007A00001919847BDE80E4004B0704779070800F2
:1007B000034A08B51168034B8968984708BD00BF14
:1007C000000000203D08080030B50D0445EA016333
:1007D00043EA0105830745EA012501D1032A01D82F
:1007E000034610E004461346043B032B44F8045B25
:1007F000FAD8131F23F00303043302F00302C318D3
:1008000001E003F8011B12F1FF32FAD230BD000003
:10081000084B10B51B6804469A68914202D0D8680C
:10082000814203D1E0B20449884701E04FF0FF3430
:10083000204610BD000000206104080070B5064687
:100840000D46002405E0064B29469847431C04D07A
:100850000134305D0028F6D100E00446204670BD2A
:10086000110808002D492D2068656C6C6F20776F8A
:10087000726C640A0A002D492D2076372066696261
:10088000202564203D2025640A00737464696F2E5E
:10089000633A20696E637265617365204D41585FEC
:1008A000535452494E475F53495A450A0D000000C0
:1008B0000400002000000000000000000100000013
:1008C0000000000000000000000000000000000028
:1008D0000000000000000000000000000000000018
:1008E0000000000000000000000000000000000008
:1008F00000000000000000000000000000000000F8
:1009000000000000000000000000000000000000E7
:1009100000000000000000000000000000000000D7
:1009200000000000000000000000000000000000C7
:1009300000000000000000000000000000000000B7
:1009400000000000000000000000000000000000A7
:100950000000000000000000000000000000000097
:100960000000000000000000000000000000000087
:100970000000000000000000000000000000000077
:100980000000000000000000000000000000000067
:100990000000000000000000000000000000000057
:0409A0000000000053
:040000038000016117
:00000001FF
